:020000040800F2
:100000003008002091010008152600080D26000880
:1000100011260008490500083526000800000000E8
:100020000000000000000000000000001D26000885
:100030004D050008000000001926000821260008D0
:10004000AB010008AB010008AB010008AB010008E0
:10005000AB010008AB010008AB010008AB010008D0
:10006000AB010008AB010008AB010008AB010008C0
:10007000AB010008AB010008AB010008AB010008B0
:10008000AB010008AB010008AB010008AB010008A0
:10009000AB010008AB010008AB010008AB01000890
:1000A000AB010008AB010008AB010008AB01000880
:1000B00029260008AB01000800000000AB01000881
:1000C000AB0100080000000000000000AB010008C8
:1000D00000000000AB010008AB01000800000000B8
:1000E000AB010008AB010008AB01000800F002F80A
:1000F00000F03FF80AA090E8000C82448344AAF183
:100100000107DA4501D100F034F8AFF2090EBAE880
:100110000F0013F0010F18BFFB1A43F0010318473B
:100120000433000024330000103A24BF78C878C19B
:10013000FAD8520724BF30C830C144BF04680C60ED
:10014000704700000023002400250026103A28BF35
:1001500078C1FBD8520728BF30C148BF0B60704739
:10016000642900F07D80002070471FB51FBD10B5C9
:1001700010BD00F052F91146FFF7F7FF02F022FD23
:1001800000F070F903B4FFF7F2FF03BC00F078F958
:100190000948804709480047FEE7FEE7FEE7FEE71B
:1001A000FEE7FEE7FEE7FEE7FEE7FEE70448054957
:1001B000054A064B7047000025260008ED000008A0
:1001C00030020020300800203004002030040020DD
:1001D0000FB41CB5074B06AA7B44694600900598EE
:1001E00000F003F90020694600F012F91CBC5DF82C
:1001F00014FB0000350200002DE9F0410E460446D4
:10020000002020622046E168884730B3252805D0C9
:10021000D4E901219047206A401CF2E7E1682046BA
:1002200000278847050018D0A5F14100192802D8F9
:1002300020354FF400673246294620462760FFF7F5
:100240008FFF40B1012804D0F61D26F007060836BE
:10025000D8E7361DD6E72846DAE7206ABDE8F08100
:100260002DE9F0410646002410687529314616A58F
:1002700010D0AFF30080002802DA404213A507E057
:1002800031688A0701D512A502E0490704D511A5F6
:10029000012401E0AFF3008000210A2206F12407C7
:1002A00009E0B0FBF2FCB0FBF2F302FB1C003030C3
:1002B00078541846491C0028F3D123462A46304674
:1002C000BDE8F04100F032B8000000002D00000051
:1002D0002B000000200000004FF0000200B5134684
:1002E00094469646203922BFA0E80C50A0E80C5056
:1002F000B1F12001BFF4F7AF090728BFA0E80C5007
:1003000048BF0CC05DF804EB890028BF40F8042BFF
:1003100008BF704748BF20F8022B11F0804F18BF6C
:1003200000F8012B70477047704770472DE9F04780
:100330000D4699469246044600F124080168880655
:1003400004D5E06921F01001216000E00120A842FD
:1003500001DD471B00E00027A1697A1902EB0900C3
:10036000081AA0612078C00602D42046AFF30080AE
:10037000002608E0D4E901211AF806009047206A17
:10038000401C761C20624E45F4DB2078C0060AD55E
:100390002046AFF3008006E0D4E9012130209047E9
:1003A000206A401C2062381EA7F10107F4DC07E038
:1003B000D4E9012118F805009047206A401C20620A
:1003C000281EA5F10105F3DC2046AFF3008020785C
:1003D000000602D50220BDE8F0870120FBE70000FF
:1003E00001694A1C02610878704700B58FB0CDE9F9
:1003F00001310021059105497944CDE903101146E9
:100400006846FFF7F9FE0FB000BD0000E5FFFFFFF3
:100410000A6802F8010B0A607047754600F02CF874
:10042000AE4605006946534620F00700854618B0E1
:1004300020B5FFF7BBFEBDE820404FF000064FF0AF
:1004400000074FF000084FF0000BAC46ACE8C009C5
:10045000ACE8C009ACE8C009ACE8C00921F007016C
:100460008D46704710B50446AFF300802046BDE8C6
:100470001040FFF787BE00000048704710000020C2
:1004800001491820ABBEFEE72600020070470000BD
:10049000B0B582B004460020019021688A68D20776
:1004A0004FD1886840F00100886040F20800C2F235
:1004B000000000684DF68361C4F21B31A0FB01010E
:1004C000880C01900198A0B1019801380190019821
:1004D00078B1019801380190019850B10198013824
:1004E0000190019828B101980138019001980028E5
:1004F000EAD100F0CFFC21688968C9071CD1054604
:1005000003E000BF8068C0071AD100F0C3FC411BA4
:1005100020680329F6D38168C907F3D1A06A40F0A7
:100520001000A062E06A40F00100E062002084F860
:100530002400012002B0B0BD002002B0B0BD00BF59
:10054000002002B0B0BD0000FEE7000070470000D0
:1005500010B581B00022009290F82420012A03D126
:100560000221084601B010BD4B680122062B80F81D
:10057000242017D8D0F800C003EB83035A1F1F2391
:10058000DCF834E003FA02F40B682EEA040403FA00
:1005900002F22243CCF83420092B03EB430219D991
:1005A00036E000BFD0F800C00C2B03EB83021DD84F
:1005B000233A1F23DCF830E003FA02F40B682EEA3A
:1005C000040403FA02F22243CCF83020092B03EB97
:1005D00043021DD8DCF81030072489689440A343F7
:1005E00091401943CCF81010002130E0413A1F230C
:1005F000DCF82CE003FA02F40B682EEA040403FA98
:1006000002F22243CCF82C20092B03EB4302E1D960
:10061000DCF80CE01E3A0724896894402EEA0404B2
:10062000914023F001022143102ACCF80C100DD187
:1006300042F20841C4F20101A1F1080294450DD033
:10064000816A41F020018162012100E00021002245
:1006500080F82420084601B010BD00BF0A681202CD
:1006600030D40A68102B42F400020A602CD140F208
:100670000801C2F2000109684DF68362C4F21B3220
:10068000A1FB0212910C01EB81014900009100993C
:10069000E1B10099013900910099C9B1009901397E
:1006A00000910099B1B1009901390091009999B177
:1006B000009901390091009900294FF00001E8D11B
:1006C000C5E700BF0021C2E70021C0E70021BEE767
:1006D0000021BCE70021BAE70021B8E70068C06C40
:1006E00070470000B0B5002800F0A8800446806A7A
:1006F00020B121688868C0070BD114E00020E062B7
:1007000084F82400204600F09BF821688868C00720
:1007100009D0886820F00100886000F0BBFB2168E8
:100720008A68D20726D1A06AC0063AD4A06A41F2EC
:10073000021290430230A062E069D4E9013240EA3B
:10074000030C531EB3FA83F35D091346B2F5807FA1
:1007500018BF2B02207D257B01284CEA450030D1B3
:1007600035B3A56A45F02005A562E56A45F00105A7
:10077000E56226E0054602E08868C007D3D000F0B5
:1007800089FB401B21680328F6D38868C007F3D093
:10079000A06A40F01000A062E06A40F00100E06250
:1007A000A06AA06A40F01000A0620120B0BD00BFA6
:1007B000D4F818C04EF60005CFF6FF7505EB4C35A2
:1007C0002B434D68B2F5807F25F4694543EA050364
:1007D0004B608B684FF2FD75CFF6E17503EA0503B8
:1007E00043EA00038B6001D0012A07D1226900236C
:1007F000CFF6F07303EB025201E000BF0022CB6A98
:1008000023F470031A43CA62896840F6FE62CFF689
:100810001F721140814207D10020E062A16A0122CB
:1008200062F30101A162B0BDA06A40F0100020F0A7
:100830000200A062E06A40F00100E0620120B0BD69
:1008400080B586B0014640F60000C4F20100096898
:1008500000F5E05291424FF00001CDE9041101D0C2
:1008600006B080BD41F21801C4F202010A6842F4E8
:1008700000720A600A6802F400720192019A0A6822
:1008800042F004020A60096801F004010191019933
:10089000132102910321039102A900F0F1F906B09E
:1008A00080BD0000F0B581B000270D4604460097DA
:1008B00000F0F0FA21688A68D20543D406464868F9
:1008C000C00503D4C86A10F4700F45D040F2080088
:1008D000C2F200000768022000F09AFB216844F68B
:1008E00024130A69B7FBF0F0C2F292431A4206D110
:1008F000CA6844F62413C0F292031A425ED00A6911
:1009000042F29243C1F249231A4207D1CA6842F225
:100910009243C0F249031A4200F0C0800A6949F2CA
:100920004923C0F224031A424FF0FC0257D1CF688A
:100930001F4208BF5422009B02FB00F7BB4253D367
:10094000C3E000BFA06A40F02000A06284F82470D9
:10095000012001B0F0BD00BF0868800700F1B5803C
:10096000681C00F0A880FDB90868800772D5086887
:10097000800700F1AA80086880076BD508688007A7
:1009800000F1A3800868800764D50868800700F13B
:100990009C80086880075DD508688007E4D594E0EE
:1009A0000868800700F1918000F074FA801B2168CC
:1009B000A842F5D908688007F2D44BE00A6942F2F0
:1009C0009243C1F249231A424FF0290207D1CB6862
:1009D00042F29247C0F249073B4208BF1422009BF3
:1009E00002FB00F7BB4270D2681C4FD055BB009889
:1009F000B8422FD30098013000900098B84264D2DA
:100A00000098B84226D30098013000900098B84270
:100A10005BD20098B8421DD3009801300090009836
:100A2000B84252D20098B84214D3009801300090D6
:100A30000098B842DBD348E000980130009000985D
:100A4000B84233D200F026FA801BA842F4D90098AD
:100A5000B842F1D2A06A40F00400A062002084F8FD
:100A60002400032001B0F0BD0098013000900098F0
:100A7000B8422AD20098013000900098B84224D29F
:100A80000098013000900098B8421ED200980130C2
:100A900000900098B842E7D317E000BF5422009BB3
:100AA00002FB00F7BB429FD30FE000BF21680CE0C0
:100AB0000868800709D40868800706D4086880079A
:100AC0005CBF08685FEA8070F2D56FF012000860C2
:100AD000A06A40F40070A062886800F46020B0F55D
:100AE000602F01D1207B18B1002001B0F0BD00BF04
:100AF000A06A20F48070A062A06AC004F4D4A06A46
:100B000040F00100A062002001B0F0BD10B5044625
:100B100090F82400012804BF022010BD012084F8B1
:100B200024002046FFF7B4FC20B1002184F82410F3
:100B300010BD00BF42F2044C2068A16AC4F2010C4F
:100B400040F2013291430CF57F7201F580719042C1
:100B5000A16233D0A16A21F48011A16241684905E4
:100B600004D5A16A012363F30D31A162A16A0023B8
:100B7000C9044FF0000144BFE16A21F00601E162BF
:100B80006FF0020184F824300160816801F4602173
:100B9000B1F5602F06D190420AD1DCF8001011F4B3
:100BA000702F05D0816841F480118160002010BD54
:100BB000816841F4A0018160002010BDDCF80010C4
:100BC00011F4702FC6D0A16A41F48011A162DCF843
:100BD00000104905C5D4C9E7B0B5044690F8240013
:100BE000012804BF0220B0BD0121206884F8241030
:100BF0008168C90709D0816821F00101816000F096
:100C000049F921688968C9070ED1214651F8280F92
:100C100041F2011220EA0202002042F001020A60C1
:100C2000002184F82410B0BD054602E08068C007AA
:100C3000EBD000F02FF9411B20680329F6D381681F
:100C4000C907F3D0A06A214640F01000A06251F815
:100C50002C2F0120E1E70000B0B5044600F01AF99E
:100C6000054640F20000C2F200000078611C18BF87
:100C7000044400BF00F00EF9401BA042FAD3B0BDFF
:100C80002DE9F04F82B00E68002E00F0F98041F29D
:100C90000002C4F20102032340F2004E904208BF5A
:100CA00002234FF6FF7CC4F2010E009300240123BF
:100CB000C1F2100C4FF0000B4FF0000950E000BFE4
:100CC00040F60042C4F20102009F904208BF012793
:100CD00004F00C030F229A402AEA020207FA03F3F7
:100CE0004FEA9B051A4346F82520D1F804A040F2AC
:100CF0000C455FEACA22DEF8082054BF22EA080247
:100D000042EA0802C4F20105CEF808202A685FEA28
:100D10008A2354BF22EA080242EA08022A605FEAF4
:100D20008A33DEF8042054BF22EA080242EA0802AD
:100D30005FEACA33CEF80420DEF800204FF001034A
:100D400054BF22EA080242EA0802CEF800200E68E8
:100D50000BF1010B36FA0BF204F1040400F0908061
:100D600003FA0BF816EA080FF1D04E68664511DC5D
:100D7000122E55D8DFE806F0340A4448545454542F
:100D80005454545454545454544C5000D1F80C906E
:100D900046E000BF4FF6FF72C1F2210296420FDC1F
:100DA0000022C1F2110296421AD00022C1F21202B0
:100DB000964215D00022C1F22102964210D02FE0B7
:100DC0000022C1F2220296420AD00022C1F2310270
:100DD000964205D00022C1F23202964220D100BFD5
:100DE0008A684AB1012A14BFC0F81480C0F8108084
:100DF0004FF0080914E000BF4FF0040910E000BFF5
:100E0000CA6802F108090BE04FF0000908E000BFD2
:100E1000CA6802F1040903E0CA6802F10C0900BFC4
:100E200022460646BBF1080F24BF203A0436376835
:100E30000F25954027EA050509FA02F22A43326098
:100E4000CA79D2067FF583AF41F21803C4F20203D8
:100E50001A68AEF57E7642F001021A601A6802F056
:100E600001020192019A2BF0030256F802A040F60B
:100E70000002C4F2010290427FF422AF002727E76C
:100E800002B0BDE8F08F0000002A08BF090401612C
:100E90007047000040F22C20C2F20000006870474A
:100EA00040F2000040F22C21C2F20000C2F2000128
:100EB00000780A68104408607047000080B542F26C
:100EC0000000C4F20200016841F01001016003203B
:100ED00000F08EF80F2000F005F800F027F8002051
:100EE00080BD000070B540F20006C2F2000640F27C
:100EF00008013278C2F200014FF47A730968B3FB3B
:100F0000F2F20446B1FBF2F1084600F0F3FC0F2CBC
:100F10004FF0010508D838B94FF0FF3021460022C4
:100F2000002500F039F87460284670BD82B041F2A7
:100F30001800C4F202000168022241F001010160C0
:100F4000016801F0010101910199416841F080516E
:100F50004160406800F08050009000980420C4F286
:100F60000100016862F31A61016002B0704700007D
:100F7000002848BF7047C1B200F01F00012202FAEA
:100F800000F04EF20012CEF2000242EAD10121F04E
:100F9000030108607047000010B54EF60C5CCEF2FD
:100FA000000CDCF80030C3F3022E8EF00704042C92
:100FB00028BF0424BEF103034FF0FF3E0EFA04F4F1
:100FC00038BF0023A14399400EFA03F39A4311431B
:100FD00000F00F0200F160430901043A03F5644395
:100FE0006244002848BF02F10C03197010BD0000D4
:100FF0004EF60C51CEF200010A684FF6FF031A407C
:1010000060F30A2242F0806040F0FD700860704793
:1010100080B5012818D0022836D0102832D141F2EC
:101020000401C4F202010A6851F8040CC00129D578
:10103000C2F383402DA3185CD2033DD440F60012C6
:10104000C0F23D02504343E041F20400C4F202000A
:10105000C16940F202320A40B2F5817F04BF4FF409
:10106000004080BD01F44071B1F5407F1CD0B1F566
:10107000007F07D1006A49F64041800701EAE0702D
:1010800080BD00BF002080BD00F0B4F941F2040132
:10109000C4F2020109680222C1F3813102EB41016D
:1010A000B0FBF1F080BD00BF50F8040C4FF22441BA
:1010B000800301EAE07080BD0A6810A3C2F34042D9
:1010C0009A5C41F20023C0F27A03B3FBF2F2504380
:1010D0000968490248BF80BD4AF6AB214000CAF604
:1010E000AA21A0FB0101480880BD00BF020304053E
:1010F000060708090A0B0C0D0E0F10100102000064
:101100002DE9F04182B00446007841F21C06C00788
:10111000C4F202064AD0306810F0805808D1306816
:1011200040F080503060306800F0805001900198AD
:1011300047F20007C4F200073868C00512D43868C7
:1011400040F480703860FFF7A5FE05463868C0059A
:1011500008D4FFF79FFE401B6428F7D9032002B094
:10116000BDE8F081706810F4407012D0616801F43D
:10117000407188420DD0706840F24042C4F2422271
:10118000012320F4407113600023C00713607160D5
:101190002AD17068616820F440700843B8F1000FEC
:1011A000706003D1306820F0805030602068810783
:1011B00007D556F8181CA26821F44041114346F89F
:1011C000181CC00604D4002002B0BDE8F08100BFA6
:1011D00056F8180CE16820F48000084346F8180C13
:1011E000002002B0BDE8F081FFF754FE054641F251
:1011F000883700BF70688007CBD4FFF74BFE401BD9
:10120000B8424FF00300F5D9EBE700002DE9F043B9
:1012100081B0002800F0858042F20008C4F2020884
:101220000446D8F800000D4600F0070088420CD2B2
:10123000D8F8000020F007002843C8F80000D8F8CC
:10124000000000F00700A8426BD1206841F20409B9
:101250008107C4F2020917D5410705D5D9F8001056
:1012600041F4E061C9F80010010705D5D9F8001074
:1012700041F46051C9F80010D9F80010A26821F0BB
:10128000F0011143C9F80010C00741D1D8F800009F
:1012900000F00700A8420CD9D8F8000020F00700A1
:1012A0002843C8F80000D8F8000000F00700A84262
:1012B00037D12068410707D5D9F80010E26821F43A
:1012C000E0611143C9F80010000708D5D9F8000003
:1012D000216920F4605040EAC100C9F80000D9F843
:1012E000002002F00C00082841F20020C0F27A0031
:1012F00050D143F2DE33C2F38341C0F60003595CA0
:10130000D2033BD440F60010C0F23D00484341E018
:10131000606802280AD001282AD159F8041C8903E0
:1013200008D4012001B0BDE8F08300BF59F8041CC7
:101330008901F6D5D9F8001021F003010843C9F856
:101340000000FFF7A7FD064641F28837D9F80000F4
:10135000616800F00C00B0EB810F97D0FFF79AFDA9
:10136000801BB842F2D9032001B0BDE8F08300BF72
:1013700059F8041C8907D4D5DCE700BFD9F8002050
:1013800043F2DC33C2F34042C0F600039A5C4843A8
:10139000B0FBF2F0D9F8001043F2C432C1F30311EC
:1013A000C0F60002515C40F2080220FA01F140F25E
:1013B0000400C2F200000068C2F200021160FFF7F0
:1013C00091FD002001B0BDE8F083000040F208006C
:1013D00041F20401C2F20000C4F20201006809688F
:1013E00043F2D432C1F30221C0F60002515CC8407E
:1013F0007047000040F2080041F20401C2F2000010
:10140000C4F202010068096843F2D432C1F3C22178
:10141000C0F60002515CC840704700002DE9F04161
:1014200082B0002868D00446007841F20006C00768
:10143000C4F2020625D0706800F00C0004281BD00E
:10144000706800F00C00082802D17068C00313D443
:101450006068002800F06881B0F5A02F00F07C8162
:10146000B0F5803F00F07C81306820F4803030603F
:10147000306820F4802076E13068800301D5606810
:10148000D0B32078800718D5706810F00C0F07D003
:10149000706800F00C0008286ED17068C0036BD42F
:1014A0003068800702D52069012825D1306861693C
:1014B00020F0F80040EAC1003060207800071FD417
:1014C0002078400732D4E56995B1706800F00C00CF
:1014D000082840F08F80012D0ED07068216A00F43A
:1014E00080328A4208D1616A00F47010884203D1C8
:1014F000002002B0BDE8F081012002B0BDE8F0811B
:10150000A069002862D00020C4F242200121C0F866
:101510008014FFF7BFFC0546706A800700F18C80DD
:10152000FFF7B8FC401B0228F6D92AE1F06910F059
:10153000805808D1F06940F08050F061F06900F007
:1015400080500090009847F20007C4F20007386806
:10155000C00529D4386840F480703860FFF79AFCE1
:10156000054600BF3868C0051ED4FFF793FC401B3A
:101570006428F7D905E100BF2069002840F2000087
:10158000C4F2422000F0828001210160FFF782FC5A
:10159000054600BF306880073FF588AFFFF77AFC4B
:1015A000401B0228F6D9ECE0E068002800F08080BB
:1015B000052800F09780012800F09880306A20F01C
:1015C00001003062306A20F0040092E00020C4F292
:1015D00042200021C0F88014FFF75CFC054600BFE4
:1015E000706A80077FF56CAFFFF754FC401B022840
:1015F000F6D9C6E00027C4F2422700203866FFF77C
:1016000049FC022D05460BD13068800140F1BE80B7
:10161000FFF740FC401B02284FF00300F4D968E7B5
:10162000306880017FF564AFFFF734FC401B02286F
:101630004FF00300F4D95CE740F20800C2F200006A
:10164000006844F6D351C1F26201A0FB0101480ACF
:10165000019000BF00BF0198411E002801913FF496
:101660002FAF00BF0198411E002801913FF428AF21
:1016700000BF0198411E002801913FF421AF00BF37
:101680000198411E00280191E4D119E70021016071
:10169000FFF700FC054600BF306880077FF50DAFFF
:1016A000FFF7F8FB401B02284FF00300F4D920E7B6
:1016B000306A20F001003062306A20F004003062AD
:1016C000FFF7E8FB054641F2883700BF306A800724
:1016D00020D5FFF7DFFB401BB8424FF00300F5D9E0
:1016E00007E700BF306A40F004003062306A40F023
:1016F00001003062FFF7CEFB054641F2883700BF9C
:10170000306A800706D4FFF7C5FB401BB842F7D903
:1017100037E000BFB8F1000F7FF4D5AEF06920F0DC
:101720008050F061CFE600BF306820F48030306038
:10173000306820F480203060FFF7ACFB054600BF26
:10174000306880037FF59DAEFFF7A4FB401B642843
:101750004FF00300F4D9CCE6306840F480203060CC
:10176000306840F480303060FFF794FB054600BFDE
:10177000306880033FF585AEFFF78CFB401B642883
:10178000F6D9032002B0BDE8F08100BF206AB0F5B1
:10179000803F05D17168A26821F400311143716066
:1017A0007168626A21F4741111430843706001206A
:1017B0003866FFF76FFB0446306880013FF598AE4E
:1017C000FFF768FB001B02284FF00300F4D990E6F6
:1017D00070B538B10446406A30B10020206104F190
:1017E000140007E0012070BD6068B0F5827F03D06F
:1017F00004F11C00002101600026A66294F851004B
:1018000020B9204684F8506000F038F8022084F8AF
:10181000510094E8071001F48271036802F4044255
:1018200023F040030360236911440CF40062114467
:1018300003F002026369114403F00102A369E56940
:10184000114403F40072114405F03802256A114472
:1018500005F08002A56A114305F4005211430160AE
:10186000042101EA13414160C16921F40061C161B1
:101870000120666584F85100304670BD70B586B0B1
:1018800040F60004C4F20104006804F5205100266B
:101890008842049602D006B070BD00BF41F2180025
:1018A000C4F20200016802AD41F480510160016898
:1018B00001F4805101910199016841F00401016036
:1018C0000068294600F0040001900198A0200290D1
:1018D00002200390032005902046FFF7D1F9402015
:1018E000CDE90206204629460496FFF7C9F906B05D
:1018F00070BD0000411E0020B0EB116F1CBF012025
:1019000070474EF21002CEF2000251604EF62351A3
:10191000CEF20001F0230B70072190601160704738
:101920007047000070470000B0B590F83C20012AD5
:1019300004BF0220B0BD01F108053CCDD1E900CEC5
:1019400023F47C5322F470521A432EF4F0431A43CA
:101950002CF4E0431A4324F4C0431A432A43C969D0
:1019600022F48042036811435964002180F83C103E
:101970000846B0BD10B590F83C20012A4FF0020295
:1019800025D080F83D200268D2F804E0D2F808C0E3
:101990000C682EF070032343B2F1804F53600BD0DC
:1019A00042F60043C4F201039A4205D040F20043DC
:1019B000C4F200039A4204D149682CF08003194311
:1019C00091600121002280F83D1080F83C201046F3
:1019D00010BD0000002804BF0120704710B5044668
:1019E00090F83D0028B9002084F83C00204600F023
:1019F00051F8022084F83D00206842F6004C02684D
:101A0000B0F1804FC4F2010C18BF604504D1A36847
:101A100022F070021A4305E040F20043C4F20003D2
:101A20009842F4D0B0F1804F18BF604504D12369CB
:101A300022F440721A4305E040F20043C4F200036E
:101A40009842F4D0A16922F08002D4F804E0E3685F
:101A5000114360450160C362C0F828E002D16169AA
:101A6000CCF8301001214161002084F8461084F840
:101A70003E1084F83F1084F8401084F8411084F838
:101A8000421084F8431084F8441084F8451084F818
:101A90003D1010BD80B582B00068B0F1804F1CBF12
:101AA00002B080BD41F21C00C4F2020001680022B5
:101AB00041F0010101600068002100F00100019087
:101AC00001981C20FFF768FA1C2002B0BDE8804096
:101AD000FFF74EBA90F83D1001291CBF0120704756
:101AE000022180F83D100068C168B0F1804F41F0DC
:101AF0000101C1600BD042F60041C4F201018842ED
:101B000005D040F20041C4F20001884206D181684C
:101B100001F00701062904BF00207047016841F069
:101B2000010101600020704780B590F83C20012A37
:101B30004FF0020200F0C28080F83D20D0F800C0D3
:101B40004FF67772DCF8083023EA0202CCF808205E
:101B50000B684F2B28DC1F2B44DD202B45D0302B6E
:101B600043D0402B40F0AC80D1F804E0C968DCF8E9
:101B70002030DCF8202022F00102CCF82020DCF814
:101B8000182022F0F00242EA011123F00A0242EA90
:101B90000E02CCF81810CCF82020DCF8081041F028
:101BA000470121F0300180E06F2B27DDB3F5005FA6
:101BB00048D0B3F5805F7AD0702B40F08180D1E9B6
:101BC00001E3C968DCF8082043EA0E0322F47F42EF
:101BD00043EA01211143CCF80810DCF8081041F069
:101BE000770162E00BB1102B6AD1DCF8081021F00C
:101BF0007001194341F0070157E000BF502B35D069
:101C0000602B5DD1D1F804E0C968DCF82030DCF845
:101C1000202022F01002CCF82020DCF8182022F43A
:101C2000704242EA013123F0A00242EA0E12CCF8DF
:101C30001810CCF82020DCF8081041F0670121F0E2
:101C4000100132E0D1E901E3C968DCF8082043EA79
:101C50000E0322F47F4243EA01211143CCF808101D
:101C6000DCF8081041F480411FE000BFD1F804E027
:101C7000C968DCF82030DCF8202022F00102CCF822
:101C80002020DCF8182022F0F00242EA011123F0B3
:101C90000A0242EA0E02CCF81810CCF82020DCF838
:101CA000081041F0570121F02001CCF80810002263
:101CB000012180F83D10002180F83C10104680BDC5
:101CC0000122F5E77047000010B501680446086975
:101CD000800744BFC8685FEA807039D4086940074C
:101CE00044BFC8685FEA40703ED40869000744BF3B
:101CF000C8685FEA007045D40869C00644BFC86878
:101D00005FEAC0604AD40869C0071CBFC8685FEAC0
:101D1000C07051D10869000644BFC8685FEA00601E
:101D200052D40869400644BFC8685FEA406053D493
:101D30000869800646BFC8685FEA806010BD6FF022
:101D4000200220460A61BDE81040FFF7EBBD00BF4E
:101D50006FF002000861012020778869800743D076
:101D60002046FFF7AFFF45E06FF004000861022056
:101D70002077886910F4407F40D02046FFF7A2FF0B
:101D800042E000BF6FF00800086104202077C869B6
:101D900080073DD02046FFF795FF3FE06FF0100031
:101DA000086108202077C86910F4407F3AD02046A7
:101DB000FFF788FF3CE000BF6FF00100086120469C
:101DC00000F012FA2168A5E76FF080000861204654
:101DD000FFF7A6FD2168A4E76FF0400008612046E8
:101DE00000F004FA2168A3E7204600F01FF920461E
:101DF00000F0F8F92168002020776FE7204600F016
:101E000015F9204600F0EEF92168002020776CE7F4
:101E1000204600F00BF9204600F0E4F9216800208C
:101E2000207769E7204600F001F9204600F0DAF952
:101E300021680020207766E780B586B0014640F62D
:101E40000000C4F20100096800F510530022994215
:101E5000049201D006B080BD41F21801C4F2020123
:101E60000A6842F004020A60096801F00401019165
:101E700001994FF40061029102210391059102A999
:101E8000FEF7FEFE06B080BD2DE9F04190F83C3033
:101E9000012B04BF0220BDE8F0814FEAB202032A01
:101EA00030D8DFE802F00337679700BF026842F6D8
:101EB0000045146A136AC4F2010523F0010313629A
:101EC0005368D2F818C0AA428D68D1F800E024F017
:101ED000020444EA05040BD1CD68D1E9056723F477
:101EE000407324F00C0425F0040533432C433B439A
:101EF0002CF0730747EA0E075360976149685163F6
:101F000014628BE00121002280F83C200846BDE8E5
:101F1000F08100BF026842F60045146A136AC4F2F9
:101F2000010523F0100313625368D2F818C0AA42C7
:101F30008D68D1F800E024F0200444EA05140FD1A4
:101F4000CD68D1E905876FF0400624F0C00406EAA9
:101F500005152C4323F4406348EA070543EA85034B
:101F60002CF4E64747EA0E2753609761496891636E
:101F7000146253E0026842F60045146A136AC4F220
:101F8000010523F4807313625368D2F81CC0AA427F
:101F90008D68D1F800E024F4007444EA05240FD1E0
:101FA000CD68D1E905872D0240F2FF4624F4406454
:101FB000B5432C4323F4405348EA070543EA05138D
:101FC0002CF0730747EA0E075360D7614968D16365
:101FD000146223E0026842F60046D2F820C0136A79
:101FE000C4F2010623F4805313625368D4690D6868
:101FF000D1F808E0B24204D14E6923F4804343EAA9
:10200000861324F4E64646EA05265360D6612CF48E
:102010000057496847EA0E33116413620021002219
:1020200080F83C200846BDE8F081000070470000C1
:10203000002804BF0120704710B5044690F83D0009
:1020400028B9002084F83C00204600F051F8022016
:1020500084F83D00206842F6004C0268B0F1804FE1
:10206000C4F2010C18BF604504D1A36822F07002CD
:102070001A4305E040F20043C4F200039842F4D052
:10208000B0F1804F18BF604504D1236922F440723B
:102090001A4305E040F20043C4F200039842F4D032
:1020A000A16922F08002D4F804E0E368114360459E
:1020B0000160C362C0F828E002D16169CCF8301039
:1020C00001214161002084F8461084F83E1084F814
:1020D0003F1084F8401084F8411084F8421084F8CE
:1020E000431084F8441084F8451084F83D1010BD66
:1020F00081B0006842F60041C4F20101884201D07B
:1021000001B0704741F21800C4F20200016841F4C6
:1021100000610160006800F400600090009801B068
:102120007047000041B1082910D0042914BF00F104
:10213000410200F13F020BE090F83E20012A1CBF53
:1021400001207047022280F83E2013E000F1400297
:102150001278012A1CBF012070470222082907D0EB
:10216000042914BF80F8412080F83F2002E000BF1E
:1021700080F84020006801F01F010122036A8A40B4
:1021800023EA02010162036A42F64441C4F20101FA
:102190001A43A1F144039842026203D0B0F1804F88
:1021A00007D112E00A6842F400420A60B0F1804FA1
:1021B0000BD042F60041C4F20101884205D040F242
:1021C0000041C4F20001884206D1816801F0070194
:1021D000062904BF00207047016841F00101016039
:1021E00000207047704700007047000070470000F3
:1021F000002804BF0120704710B5044690F8410044
:1022000028B9002084F84000204600F063F824201C
:1022100084F841002068D4E90212C36823F4005313
:10222000C360036923F440531A430261D4E90423D1
:102230001143C268194341F20C639A431143C160D0
:102240004169A26921F44071114343F60002C4F2CE
:1022500001029042416103D0FFF7B8F802E000BFED
:10226000FFF7C8F86268192148439100B0FBF1F00C
:1022700048F21F51C5F2EB11A0FB01235A094FF69A
:102280009C73C0F6FF7302FB0300322303EB0010C4
:10229000A0FB0101F02303EA5113206803EB0212B3
:1022A000C1F3431111448160016921F4904101613E
:1022B000416921F02A014161C16841F40051C160C6
:1022C00000202021606484F8411084F8421060638B
:1022D00010BD000070B586B0006844F20041C4F241
:1022E000000188424FF00001CDE90411CDE902114F
:1022F00020D043F60001C4F20101884248D141F2E6
:102300001800C4F2020001684FF4806641F4804175
:102310000160016801F4804101910199016841F077
:1023200004010160006800F00400019001984FF47E
:10233000007017E041F21800C4F20200416808265C
:1023400041F400314160416801F40031019101998B
:10235000016841F004010160006800F00400019090
:10236000019804200290022040F60004039003200C
:10237000C4F2010402AD059020462946FEF780FC18
:102380000020CDE90300204629460296FEF778FC9E
:1023900006B070BD2DE9F04381B0044690F84100CD
:1023A000202840F0B180884600294FF0010000F05D
:1023B000D6801646002A00F0D280002060642120DA
:1023C0001D4684F84100FEF765FDA684E684A168F9
:1023D0000646B1F5805F03D12069002800F098809F
:1023E00047464FF00008E18C2068002900F09680F5
:1023F00005F101090BE000BF47B317F8011B41606D
:10240000E18C0139E184E18C002900F087800168CA
:102410000906F1D4B9F1000F0AD0EDB1FEF73AFD8B
:10242000801BA84218D8206801680906F6D5E3E7A2
:1024300001680906E0D4016809065CBF01685FEA2B
:102440000161D9D401680906F2D5D5E738F8021B35
:1024500000276FF35F21D2E7206850E8030F21685F
:1024600020F4D07041E80302BAB3206850E8030FAB
:10247000216820F4D07041E8030272B3206850E86C
:10248000030F216820F4D07041E803022AB32068CA
:1024900050E8030F216820F4D07041E80302002ABD
:1024A000DAD11AE0206850E8050F216820F0010019
:1024B00041E80502DAB1206850E8050F216820F0F4
:1024C000010041E8050292B1206850E8050F21683B
:1024D00020F0010041E805024AB1206850E8050FEC
:1024E000216820F0010041E80502002ADAD120200D
:1024F00084F8410084F84200002084F84000032062
:1025000001B0BDE8F08300BF022001B0BDE8F08358
:102510000027E18C206800297FF46AAF0168490632
:1025200019D4FDB1691C0DD10168490613D40168A5
:1025300049065CBF01685FEA41610CD40168490645
:10254000F2D508E0FEF7A6FC801BA8420AD8206856
:1025500000684006F6D5202084F84100002001B034
:10256000BDE8F083206850E8030F216820F4D070A4
:1025700041E80302002A3ED0206850E8030F21689A
:1025800020F4D07041E80302AAB3206850E8030F9A
:10259000216820F4D07041E8030262B3206850E85B
:1025A000030F216820F4D07041E80302002AD9D13A
:1025B00021E000BF206850E8050F216820F00100ED
:1025C00041E80502002A3FF492AF206850E8050F69
:1025D000216820F0010041E80502002A3FF487AF9E
:1025E000206850E8050F216820F0010041E805024D
:1025F000002A3FF47CAF206850E8050F216820F0E6
:10260000010041E80502002AD4D170E7FEE700008E
:10261000FEE70000FEE70000704700007047000082
:10262000FEF73EBC7047000040F25410C2F20000BA
:10263000FFF74ABBFEE70000012805D0022818BFBB
:102640007047BF2001E000BF7F2070B5014440F615
:102650001440C4F20100102202604FF0080C4FF049
:10266000200E40224FF480734FF40074C0F800C075
:10267000C0F800E002600360046050F8085C4EB2ED
:1026800045F0080540F8085CCD064FF0200558BF1E
:102690004FF4001540F8045C8D064FF0400558BF1C
:1026A0004FF4800540F8045C4D064FF4807558BF28
:1026B0004FF0807540F8045C4FF40075B6F1FF3FB1
:1026C000C8BF4FF0007540F8045CC0F800C0C0F807
:1026D00000E002600360046050F8085C45F0080503
:1026E00040F8085CCD074FF0200508BF4FF40015F7
:1026F00040F8045C8D074FF0400558BF4FF480054B
:1027000040F8045C4D074FF4807558BF4FF080755A
:1027100009074FF4007140F8045C58BF4FF0007196
:1027200040F8041CC0F800C0C0F800E0026003607C
:102730000460BDE8704070472DE9F04F81B08246DB
:10274000FA2000928946FEF787FA40F61447C4F251
:10275000010710204FF0080B202540244FF480780B
:102760004FF400763860C7F800B03D603C60C7F8B1
:1027700000803E6057F8080C4FF4001340F008004A
:1027800047F8080C4FF4001047F8040C4FF4800091
:1027900047F8040C4FF0807047F8040C4FF00070BD
:1027A00047F8040CC7F800B03D603C60C7F80080F3
:1027B0003E6057F8080C4FF0807240F008004FF070
:1027C000007147F8080C322047F8043C47F8044CE5
:1027D00047F8042C47F8041CC7F800B03D603C6083
:1027E000C7F800803E60FEF737FA00994AEA090010
:1027F000084310213960C7F800B03D603C60C7F85D
:1028000000803E6057F8081C40F0200041F00801AD
:1028100047F8081CC1064FF0200158BF4FF40011C3
:1028200047F8041C41064FF4807147F8044C58BF28
:102830004FF0807142B247F8041C4FF40071B2F1BE
:10284000FF3FC8BF4FF0007147F8041CC7F800B045
:102850003D603C60C7F800803E6057F8081C41F0BE
:10286000080147F8081CC1074FF0200108BF4FF4CA
:10287000001147F8041C81074FF0400158BF4FF486
:10288000800147F8041C41074FF4807158BF4FF096
:10289000807100074FF4007047F8041C58BF4FF0D8
:1028A000007047F8040C3220C7F800B03D603C606F
:1028B000C7F800803E60FEF7CFF910203860C7F8F7
:1028C00000B03D603C60C7F800803E6057F8080CDF
:1028D0004FF4001240F0080047F8080C4FF4800055
:1028E0004FF0807A4FF0007147F8042C47F8040C41
:1028F00047F804AC47F8041CC7F800B03D603C60E2
:10290000C7F800803E6057F8080C4FF4001940F0FB
:10291000080047F8080C322047F8042C47F8044C0C
:1029200047F8048C47F8041CC7F800B03D603C60D1
:10293000C7F800803E60FEF78FF910203860C7F8B6
:1029400000B03D603C60C7F800803E6057F8080C5E
:1029500040F0080047F8080C4FF4800047F8049C4A
:1029600047F8040C4FF0007047F804AC47F8040C2B
:10297000C7F800B03D603C60C7F800803E6057F883
:10298000080C4FF0807A40F0080047F8080C32201D
:1029900047F8049C47F8044C47F8048C47F8046C4B
:1029A000C7F800B03D603C60C7F800803E60FEF7AD
:1029B00053F910203860C7F800B03D603C60C7F89C
:1029C00000803E6057F8080C4FF4001240F00800F9
:1029D00047F8080C4FF480014FF0007047F8042CC2
:1029E00047F8041C47F804AC47F8040CC7F800B0DB
:1029F0003D603C60C7F800803E6057F8080C4FF41B
:102A0000001A40F0080047F8080C322047F8042C60
:102A100047F8041C4FF4800947F8048C47F8046C0D
:102A2000C7F800B03D603C60C7F800803E60FEF72C
:102A300013F910203860C7F800B03D603C60C7F85B
:102A400000803E6057F8080C4FF0807140F008009D
:102A50004FF0007247F8080C47F804AC47F8049CA4
:102A600047F8041C47F8042CC7F800B03D603C60F0
:102A7000C7F800803E6057F8080C40F0080047F89F
:102A8000080C47F8045C47F8049C47F8041C47F816
:102A9000042CC7F800B03D603C60C7F8008064209B
:102AA0003E6001B0BDE8F04FFEF7D6B870B50278D1
:102AB000002A08BF70BD40F61441C4F2010101387C
:102AC0004FF0080C4FF0200E40234FF480744FF469
:102AD000007500BF51F8086C46F0100641F8086C0C
:102AE000C1F800C0C1F800E00B600C600D6051F847
:102AF000086C46F0080641F8086CD6064FF0200630
:102B000058BF4FF4001641F8046C96064FF040068B
:102B100058BF4FF4800641F8046C56064FF4807697
:102B200058BF4FF0807641F8046C56B2B6F1FF3FC3
:102B30004FF40076C8BF4FF0007641F8046CC1F83E
:102B400000C0C1F800E00B600C600D6051F8086C2B
:102B500046F0080641F8086CD6074FF0200608BF7B
:102B60004FF4001641F8046C96074FF0400658BF2A
:102B70004FF4800641F8046C56074FF4807658BF36
:102B80004FF0807612074FF4007241F8046C58BF82
:102B90004FF0007241F8042CC1F800C0C1F800E009
:102BA0000B600C600D6082780130002A92D170BDFC
:102BB00010B51446FFF740FD2046BDE81040FFF772
:102BC00075BF0000D8B0FEF779F96C46201D2421AE
:102BD000FDF782FB022000900120049010200025C8
:102BE000059020464B95CDE949550795FEF716FC13
:102BF00020B1EFF3108072B6FEE700BF0F20CDE9E1
:102C0000500550A80021CDE952555495FEF7FEFA23
:102C100020B1EFF3108072B6FEE700BF4FF002085C
:102C2000002748A8CDF820814A97FEF769FA28B115
:102C3000EFF3108072B600BFFEE700BF41F218004C
:102C4000C4F20200016840F6004941F02001016031
:102C50000168C4F2010901F02001009100990168A6
:102C6000002241F00401016001684EF2783401F065
:102C7000040100910099016841F0080101600068B9
:102C80004EF2783100F00800009000984846FEF7B8
:102C9000FBF8A9F5806528464FF4805100224FF4D7
:102CA000805AFEF7F1F80094012401A86E4680E8EE
:102CB000900148463146FDF7E3FF28463146CDE90D
:102CC00000A4CDE90278FDF7DBFF40F2700BC2F201
:102CD000000B09F5C051584640F8141F4FF460210D
:102CE00004730775C161C0E901770461FDF7FAFC5F
:102CF00020B1EFF3108072B6FEE700BF04200BF1A5
:102D00001405CDE900040024694628460294FDF725
:102D10001FFC28B1EFF3108072B600BFFEE700BFC2
:102D200040F29C1009F53051C2F200000C234FF420
:102D3000165280E81600C0E90344C0E90534C461B6
:102D4000FFF756FA20B1EFF3108072B6FEE700BF2E
:102D500040F2B40009F51051C2F200004FF4827243
:102D6000002401234FF40077382680E816000A215A
:102D7000C0E90344C0E90537C661C0E90844C0E9B9
:102D80000A41FEF725FD28B1EFF3108072B600BFAF
:102D9000FEE700BF40F20C1009F50051C2F200003E
:102DA0004FF6FF72CDE9484453940694C0E90014ED
:102DB000C0E90242C0E904448461FFF739F928B14F
:102DC000EFF3108072B600BFFEE700BF40F20C10B8
:102DD000C2F2000048A9FEF7CDFD28B1EFF3108044
:102DE00072B600BFFEE700BF40F20C100024C2F232
:102DF000000050A90C22CDE950445294CDE954442E
:102E00005694FFF741F828B1EFF3108072B600BF77
:102E1000FEE700BF4FF40050059040F20C10C2F2E4
:102E2000000069460494CDE90244CDE900440794CA
:102E3000FEF77AFD20B1EFF3108072B6FEE700BF17
:102E400040F20C10C2F20000FEF7F6FF40F2541000
:102E50000021C2F200004FF080427C234FF6FF17A2
:102E60000391CDE90111CDE95011C0E90023C0E97A
:102E7000021701618161FEF7ADFD18B1EFF310801B
:102E800072B6FEE74FF48050009040F25410C2F248
:102E900000006946FEF748FE20B1EFF3108072B6DD
:102EA000FEE700BF40F25410C2F2000050A9FEF746
:102EB00061FD18B1EFF3108072B6FEE740F2E41046
:102EC000A9F54841C2F2000000270C234FF4E1327B
:102ED00080E88600C0E90377C0E90537C761FFF7DE
:102EE00087F918B1EFF3108072B6FEE740F20C10CC
:102EF000C2F200000C21FFF715F940F25410C2F2A3
:102F00000000FEF7E7FD002000210822FFF714FC77
:102F100043F2F030C0F6000090E88E00D0E904647F
:102F2000D0E906C00DF5A07E8EE88E000DF5907EEE
:102F3000CDE956C08EE88E00CDE94EC00DF5807EFD
:102F4000CDE946C0FA20CDE95464CDE94C648EE861
:102F50008E00CDE94464FDF77FFE73480DF1040C4B
:102F6000009071A04669071D8ECF008B059643F235
:102F7000204640F24378C0F6000600248CE88E001C
:102F8000ADF81800DA464AF8084F0127284651469E
:102F9000CBE90374FDF7DCFA2846FDF7B7FD2846B8
:102FA0004FF47A71FDF77EFC2846FDF797FBABF8EE
:102FB00000002846FDF710FE28465146CAF800706A
:102FC000FDF7C6FA2846FDF7A1FD28464FF47A71B1
:102FD000FDF768FC2846FDF781FBABF802002846A8
:102FE000FDF7FAFD0220CAF8000028465146FDF719
:102FF000AFFA2846FDF78AFD28464FF47A71FDF7AF
:1030000051FC2846FDF76AFBABF804002846FDF7A3
:10301000E3FDBBF80070384600F0C3F846F2666383
:103020004FF06632C4F20A0300F0CEF8002300220B
:10303000C3F6307300F0C8F844F200030022C4F273
:103040008F0300F0C1F800F07DF84CF6CD4141430C
:10305000C90CABF8061047454FF0000188BF0121AD
:10306000B0F5827F4FF0000038BF012041EA000236
:1030700048464FF40051FDF707FFBBF8020000225D
:10308000404548464FF4804188BF0122FDF7FCFED1
:10309000BBF804000022404548464FF4004188BF79
:1030A0000122FDF7F1FE43F2104201200121C0F69A
:1030B0000002FFF77DFDC820FDF7CEFDBBF8002024
:1030C00050AF38463146FDF783F8022001213A46D9
:1030D000FFF76EFD1E20FDF7BFFDBBF8022048AFD5
:1030E00038463146FDF774F8032001213A46FFF7D0
:1030F0005FFDBBF8042040AF38463146FDF768F865
:10310000042001213A46FFF753FD6420FDF7A4FD9A
:1031100040F29C10C2F2000069461A224FF0FF33C1
:10312000FFF738F92EE700BF456E657267792075A5
:1031300073616765206973206E6F726D616C200D1D
:103140000A0000004FEA41034FEA5353A3F580639E
:10315000D3F11E03C8BFD3F1210C0CDD4FF00042A8
:1031600042EAC12242EA505232FA03FC8CEAE17C84
:10317000ACEBE1707047102BC4BF0020704703F523
:10318000787CBCF1FF3F04D06FF0004282EA21005E
:10319000704770B500F0C2F8499224800020704753
:1031A000F2E7B0FA80F310FA03F10AD0C3F11D037D
:1031B00003F580634FEA03524FEA415002EBD121FD
:1031C00070474FF00000704770B5DFF848C11CEA47
:1031D000111E1EBF1CEA13159EEA0C0F95EA0C0F78
:1031E00000F06F8081EA03044EEAD47EAE4421EA07
:1031F0004C1123EA4C1341F4801143F48013AEF1D7
:103200007F7EA1FB024CA0FB0365361955EB0C0534
:10321000A1FB034C4CF10003A0FB021C16EB0C06B7
:10322000654153F10003094218BF46F0010613F44B
:10323000007F0BD14FEA03314FEA053041EA1551C7
:1032400040EA165034036FF003020AE04FEAC3214C
:103250004FEAC52041EA555140EA5650F4026FF05A
:10326000020202EB2E4201EB025585EACE710AD032
:103270005FEA440C18BF24F0004450F1000041F113
:10328000000120EAD47040F2FE7C624500D270BD9D
:10329000A84214BF4FF080444FF04044002E08BFB6
:1032A0000024BEF1806FA8BFA1F1C041BDE870400D
:1032B00080F2828001F1C04101F000414FF0000036
:1032C00070470CEA13159EEA0C0F18BF95EA0C0F15
:1032D00006D081EA030E4FF000000EF0004170BDF1
:1032E00000F01CF88900013E00F007B800F009B8B2
:1032F0004FEA430C5FEA5C5C08D081EA030100F00E
:103300005BB84FEA410C5FEA5C5CF6D102494FF0D2
:10331000000070470000FF070000F87F0EF1020E6A
:103320002EF0030E5EF8046B364205D4012A43EBFF
:10333000030515F5001F12D8012841EB010C1CF5FF
:10334000001F0CD80ED14FEAD17C0CEB4C0C0CF1C9
:10335000020C15F5001F08BF4CEBD37C04E04FF0C6
:10336000080C01E04FEAD37C0CEB4C0526FA05F67D
:1033700006F00706B6F1040C06D20EEB860CBDE88B
:1033800070404CF0010C6047DFE80CF0090B0202C2
:103390004FF00041A1F500214FF0000070BD19462B
:1033A0001046012851EB010418BFD4F5001484BF66
:1033B000002001F0004170BD0808A0F500114FEA9F
:1033C000310170470000000000000000010203040A
:1033D00006070809000000000102030401020203BD
:1033E0000405060708090A0B0C0D0E0F101000004B
:1033F00020000000000000000000000000000000AD
:1034000000000000000000000000000000000000BC
:103410002020204144432056616C7565733A20009A
:10342000256400004834000800000020100000005F
:10343000280100085834000810000020200800006F
:10344000440100080000000001000000100000001E
:083450000024F400000000005C
:04000005080000ED02
:00000001FF
